:100000000C9434000C9465000C9451000C94510035
:100010000C9451000C9451000C9451000C9451001C
:100020000C9451000C9451000C9451000C9451000C
:100030000C9451000C9451000C9451000C945100FC
:100040000C9451000C9451000C9451000C945100EC
:100050000C9451000C9451000C9451000C945100DC
:100060000C9451000C94510011241FBECFEFD8E026
:10007000DEBFCDBF11E0A0E0B1E0E0E7F2E002C0FA
:1000800005900D92A231B107D9F721E0A2E1B1E0CC
:1000900001C01D92A831B207E1F70E94DD000C9467
:1000A00036010C940000E1E8F0E0808181608083FB
:1000B00008955298E9E6F0E0808182608083808133
:1000C0008E7F8083E89A789408951F921FB61F92BE
:1000D00011242F933F934F938F939F93209115015A
:1000E000211519F149B1309116012091170142FBF8
:1000F000882780F901C0880F3A95EAF7822B809310
:100100001701809116018F5F80931601809116016F
:10011000883011F4109215019F918F914F913F916A
:100120002F911F901FBE1F90189581E0809315019D
:100130001092160110921701EFCF9091150181E0F6
:10014000911180E008951092C50087E68093C40065
:1001500088E08093C10086E08093C200089590916A
:10016000C00095FFFCCF8093C6000895CF93DF9326
:10017000EC018991811103C0DF91CF9108950E9414
:10018000AF00F7CFCF93DF9300D000D000D0CDB732
:10019000DEB74AE050E0BE016F5F7F4F0E94F6007D
:1001A000CE0101960E94B6000F900F900F900F9015
:1001B0000F900F90DF91CF9108950E94A3000E94AD
:1001C0005300809112018115E1F380E091E00E94DB
:1001D000B60080911301909114010E94C2008FE03B
:1001E00091E00E94B60010921201EBCF453251050A
:1001F00020F4423010F00C940101FB011082CB017D
:100200000895BB274A3031F4992322F4BDE290953A
:1002100081959F4F0C940D01BB27FB015527AA2701
:10022000880F991FAA1FA41710F0A41B8395505183
:10023000B9F7A05DAA3308F0A95DA193009779F7FB
:10024000B111B1931192CB010C942601DC01FC0198
:10025000672F71917723E1F7329704C07C916D93FA
:1002600070836291AE17BF07C8F30895F894FFCF6B
:10027000526563656976656420646174613A000A59
:0202800000007C
:00000001FF
